{
  "contractName": "Factory",
  "abi": [
    {
      "anonymous": false,
      "inputs": [
        {
          "indexed": true,
          "internalType": "address",
          "name": "previousOwner",
          "type": "address"
        },
        {
          "indexed": true,
          "internalType": "address",
          "name": "newOwner",
          "type": "address"
        }
      ],
      "name": "OwnershipTransferred",
      "type": "event"
    },
    {
      "inputs": [],
      "name": "owner",
      "outputs": [
        {
          "internalType": "address",
          "name": "",
          "type": "address"
        }
      ],
      "stateMutability": "view",
      "type": "function"
    },
    {
      "inputs": [],
      "name": "renounceOwnership",
      "outputs": [],
      "stateMutability": "nonpayable",
      "type": "function"
    },
    {
      "inputs": [
        {
          "internalType": "address",
          "name": "newOwner",
          "type": "address"
        }
      ],
      "name": "transferOwnership",
      "outputs": [],
      "stateMutability": "nonpayable",
      "type": "function"
    },
    {
      "inputs": [
        {
          "internalType": "string",
          "name": "_firstName",
          "type": "string"
        },
        {
          "internalType": "string",
          "name": "_lastName",
          "type": "string"
        },
        {
          "internalType": "string",
          "name": "_hash",
          "type": "string"
        }
      ],
      "name": "addHash",
      "outputs": [],
      "stateMutability": "nonpayable",
      "type": "function"
    },
    {
      "inputs": [
        {
          "internalType": "string",
          "name": "_hash",
          "type": "string"
        }
      ],
      "name": "clearHash",
      "outputs": [],
      "stateMutability": "nonpayable",
      "type": "function"
    },
    {
      "inputs": [
        {
          "internalType": "string",
          "name": "hash",
          "type": "string"
        }
      ],
      "name": "getContract",
      "outputs": [
        {
          "internalType": "contract HashContract",
          "name": "",
          "type": "address"
        }
      ],
      "stateMutability": "view",
      "type": "function"
    }
  ],
  "bytecode": "0x608060405234801561001057600080fd5b5060006100216100c460201b60201c565b9050806000806101000a81548173ffffffffffffffffffffffffffffffffffffffff021916908373ffffffffffffffffffffffffffffffffffffffff1602179055508073ffffffffffffffffffffffffffffffffffffffff16600073ffffffffffffffffffffffffffffffffffffffff167f8be0079c531659141344cd1fd0a4f28419497f9722a3daafe3b4186f6b6457e060405160405180910390a3506100cc565b600033905090565b611c42806100db6000396000f3fe60806040523480156200001157600080fd5b50600436106200006a5760003560e01c806335817773146200006f5780634d4c2b9e146200015a578063715018a6146200021b5780638da5cb5b1462000227578063a65158ca146200025d578063f2fde38b1462000452575b600080fd5b6200012e600480360360208110156200008757600080fd5b8101908080359060200190640100000000811115620000a557600080fd5b820183602082011115620000b857600080fd5b80359060200191846001830284011164010000000083111715620000db57600080fd5b91908080601f016020809104026020016040519081016040528093929190818152602001838380828437600081840152601f19601f82011690508083019250505050505050919291929050505062000499565b604051808273ffffffffffffffffffffffffffffffffffffffff16815260200191505060405180910390f35b62000219600480360360208110156200017257600080fd5b81019080803590602001906401000000008111156200019057600080fd5b820183602082011115620001a357600080fd5b80359060200191846001830284011164010000000083111715620001c657600080fd5b91908080601f016020809104026020016040519081016040528093929190818152602001838380828437600081840152601f19601f8201169050808301925050505050505091929192905050506200052e565b005b62000225620006a7565b005b6200023162000830565b604051808273ffffffffffffffffffffffffffffffffffffffff16815260200191505060405180910390f35b62000450600480360360608110156200027557600080fd5b81019080803590602001906401000000008111156200029357600080fd5b820183602082011115620002a657600080fd5b80359060200191846001830284011164010000000083111715620002c957600080fd5b91908080601f016020809104026020016040519081016040528093929190818152602001838380828437600081840152601f19601f820116905080830192505050505050509192919290803590602001906401000000008111156200032d57600080fd5b8201836020820111156200034057600080fd5b803590602001918460018302840111640100000000831117156200036357600080fd5b91908080601f016020809104026020016040519081016040528093929190818152602001838380828437600081840152601f19601f82011690508083019250505050505050919291929080359060200190640100000000811115620003c757600080fd5b820183602082011115620003da57600080fd5b80359060200191846001830284011164010000000083111715620003fd57600080fd5b91908080601f016020809104026020016040519081016040528093929190818152602001838380828437600081840152601f19601f82011690508083019250505050505050919291929050505062000859565b005b62000497600480360360208110156200046a57600080fd5b81019080803573ffffffffffffffffffffffffffffffffffffffff16906020019092919050505062000bd8565b005b60006001826040518082805190602001908083835b60208310620004d35780518252602082019150602081019050602083039250620004ae565b6001836020036101000a038019825116818451168082178552505050505050905001915050908152602001604051809103902060009054906101000a900473ffffffffffffffffffffffffffffffffffffffff169050919050565b6200053862000de8565b73ffffffffffffffffffffffffffffffffffffffff1660008054906101000a900473ffffffffffffffffffffffffffffffffffffffff1673ffffffffffffffffffffffffffffffffffffffff1614620005f9576040517f08c379a00000000000000000000000000000000000000000000000000000000081526004018080602001828103825260208152602001807f4f776e61626c653a2063616c6c6572206973206e6f7420746865206f776e657281525060200191505060405180910390fd5b60006001826040518082805190602001908083835b602083106200063357805182526020820191506020810190506020830392506200060e565b6001836020036101000a038019825116818451168082178552505050505050905001915050908152602001604051809103902060006101000a81548173ffffffffffffffffffffffffffffffffffffffff021916908373ffffffffffffffffffffffffffffffffffffffff16021790555050565b620006b162000de8565b73ffffffffffffffffffffffffffffffffffffffff1660008054906101000a900473ffffffffffffffffffffffffffffffffffffffff1673ffffffffffffffffffffffffffffffffffffffff161462000772576040517f08c379a00000000000000000000000000000000000000000000000000000000081526004018080602001828103825260208152602001807f4f776e61626c653a2063616c6c6572206973206e6f7420746865206f776e657281525060200191505060405180910390fd5b600073ffffffffffffffffffffffffffffffffffffffff1660008054906101000a900473ffffffffffffffffffffffffffffffffffffffff1673ffffffffffffffffffffffffffffffffffffffff167f8be0079c531659141344cd1fd0a4f28419497f9722a3daafe3b4186f6b6457e060405160405180910390a360008060006101000a81548173ffffffffffffffffffffffffffffffffffffffff021916908373ffffffffffffffffffffffffffffffffffffffff160217905550565b60008060009054906101000a900473ffffffffffffffffffffffffffffffffffffffff16905090565b600073ffffffffffffffffffffffffffffffffffffffff166001826040518082805190602001908083835b60208310620008a9578051825260208201915060208101905060208303925062000884565b6001836020036101000a038019825116818451168082178552505050505050905001915050908152602001604051809103902060009054906101000a900473ffffffffffffffffffffffffffffffffffffffff1673ffffffffffffffffffffffffffffffffffffffff161462000987576040517f08c379a00000000000000000000000000000000000000000000000000000000081526004018080602001828103825260168152602001807f4861736820697320616c726561647920696e207573650000000000000000000081525060200191505060405180910390fd5b6000838383306040516200099b9062000df0565b808060200180602001806020018573ffffffffffffffffffffffffffffffffffffffff168152602001848103845288818151815260200191508051906020019080838360005b83811015620009fe578082015181840152602081019050620009e1565b50505050905090810190601f16801562000a2c5780820380516001836020036101000a031916815260200191505b50848103835287818151815260200191508051906020019080838360005b8381101562000a6757808201518184015260208101905062000a4a565b50505050905090810190601f16801562000a955780820380516001836020036101000a031916815260200191505b50848103825286818151815260200191508051906020019080838360005b8381101562000ad057808201518184015260208101905062000ab3565b50505050905090810190601f16801562000afe5780820380516001836020036101000a031916815260200191505b50975050505050505050604051809103906000f08015801562000b25573d6000803e3d6000fd5b509050806001836040518082805190602001908083835b6020831062000b61578051825260208201915060208101905060208303925062000b3c565b6001836020036101000a038019825116818451168082178552505050505050905001915050908152602001604051809103902060006101000a81548173ffffffffffffffffffffffffffffffffffffffff021916908373ffffffffffffffffffffffffffffffffffffffff16021790555050505050565b62000be262000de8565b73ffffffffffffffffffffffffffffffffffffffff1660008054906101000a900473ffffffffffffffffffffffffffffffffffffffff1673ffffffffffffffffffffffffffffffffffffffff161462000ca3576040517f08c379a00000000000000000000000000000000000000000000000000000000081526004018080602001828103825260208152602001807f4f776e61626c653a2063616c6c6572206973206e6f7420746865206f776e657281525060200191505060405180910390fd5b600073ffffffffffffffffffffffffffffffffffffffff168173ffffffffffffffffffffffffffffffffffffffff16141562000d2b576040517f08c379a000000000000000000000000000000000000000000000000000000000815260040180806020018281038252602681526020018062001be76026913960400191505060405180910390fd5b8073ffffffffffffffffffffffffffffffffffffffff1660008054906101000a900473ffffffffffffffffffffffffffffffffffffffff1673ffffffffffffffffffffffffffffffffffffffff167f8be0079c531659141344cd1fd0a4f28419497f9722a3daafe3b4186f6b6457e060405160405180910390a3806000806101000a81548173ffffffffffffffffffffffffffffffffffffffff021916908373ffffffffffffffffffffffffffffffffffffffff16021790555050565b600033905090565b610de88062000dff8339019056fe60806040523480156200001157600080fd5b5060405162000de838038062000de8833981810160405260808110156200003757600080fd5b81019080805160405193929190846401000000008211156200005857600080fd5b838201915060208201858111156200006f57600080fd5b82518660018202830111640100000000821117156200008d57600080fd5b8083526020830192505050908051906020019080838360005b83811015620000c3578082015181840152602081019050620000a6565b50505050905090810190601f168015620000f15780820380516001836020036101000a031916815260200191505b50604052602001805160405193929190846401000000008211156200011557600080fd5b838201915060208201858111156200012c57600080fd5b82518660018202830111640100000000821117156200014a57600080fd5b8083526020830192505050908051906020019080838360005b838110156200018057808201518184015260208101905062000163565b50505050905090810190601f168015620001ae5780820380516001836020036101000a031916815260200191505b5060405260200180516040519392919084640100000000821115620001d257600080fd5b83820191506020820185811115620001e957600080fd5b82518660018202830111640100000000821117156200020757600080fd5b8083526020830192505050908051906020019080838360005b838110156200023d57808201518184015260208101905062000220565b50505050905090810190601f1680156200026b5780820380516001836020036101000a031916815260200191505b5060405260200180519060200190929190505050600062000291620003cc60201b60201c565b9050806000806101000a81548173ffffffffffffffffffffffffffffffffffffffff021916908373ffffffffffffffffffffffffffffffffffffffff1602179055508073ffffffffffffffffffffffffffffffffffffffff16600073ffffffffffffffffffffffffffffffffffffffff167f8be0079c531659141344cd1fd0a4f28419497f9722a3daafe3b4186f6b6457e060405160405180910390a350836001908051906020019062000347929190620003d4565b50826002908051906020019062000360929190620003d4565b50816003908051906020019062000379929190620003d4565b5080600460006101000a81548173ffffffffffffffffffffffffffffffffffffffff021916908373ffffffffffffffffffffffffffffffffffffffff16021790555042600581905550505050506200047a565b600033905090565b828054600181600116156101000203166002900490600052602060002090601f016020900481019282601f106200041757805160ff191683800117855562000448565b8280016001018555821562000448579182015b82811115620004475782518255916020019190600101906200042a565b5b5090506200045791906200045b565b5090565b5b80821115620004765760008160009055506001016200045c565b5090565b61095e806200048a6000396000f3fe608060405234801561001057600080fd5b506004361061007d5760003560e01c80639ab03dcb1161005b5780639ab03dcb14610143578063c45a0155146101c6578063d13319c4146101fa578063f2fde38b1461027d5761007d565b80634589fe0c14610082578063715018a6146101055780638da5cb5b1461010f575b600080fd5b61008a6102c1565b6040518080602001828103825283818151815260200191508051906020019080838360005b838110156100ca5780820151818401526020810190506100af565b50505050905090810190601f1680156100f75780820380516001836020036101000a031916815260200191505b509250505060405180910390f35b61010d61035f565b005b6101176104e5565b604051808273ffffffffffffffffffffffffffffffffffffffff16815260200191505060405180910390f35b61014b61050e565b6040518080602001828103825283818151815260200191508051906020019080838360005b8381101561018b578082015181840152602081019050610170565b50505050905090810190601f1680156101b85780820380516001836020036101000a031916815260200191505b509250505060405180910390f35b6101ce6105ac565b604051808273ffffffffffffffffffffffffffffffffffffffff16815260200191505060405180910390f35b6102026105d2565b6040518080602001828103825283818151815260200191508051906020019080838360005b83811015610242578082015181840152602081019050610227565b50505050905090810190601f16801561026f5780820380516001836020036101000a031916815260200191505b509250505060405180910390f35b6102bf6004803603602081101561029357600080fd5b81019080803573ffffffffffffffffffffffffffffffffffffffff1690602001909291905050506106ef565b005b60018054600181600116156101000203166002900480601f0160208091040260200160405190810160405280929190818152602001828054600181600116156101000203166002900480156103575780601f1061032c57610100808354040283529160200191610357565b820191906000526020600020905b81548152906001019060200180831161033a57829003601f168201915b505050505081565b6103676108fa565b73ffffffffffffffffffffffffffffffffffffffff1660008054906101000a900473ffffffffffffffffffffffffffffffffffffffff1673ffffffffffffffffffffffffffffffffffffffff1614610427576040517f08c379a00000000000000000000000000000000000000000000000000000000081526004018080602001828103825260208152602001807f4f776e61626c653a2063616c6c6572206973206e6f7420746865206f776e657281525060200191505060405180910390fd5b600073ffffffffffffffffffffffffffffffffffffffff1660008054906101000a900473ffffffffffffffffffffffffffffffffffffffff1673ffffffffffffffffffffffffffffffffffffffff167f8be0079c531659141344cd1fd0a4f28419497f9722a3daafe3b4186f6b6457e060405160405180910390a360008060006101000a81548173ffffffffffffffffffffffffffffffffffffffff021916908373ffffffffffffffffffffffffffffffffffffffff160217905550565b60008060009054906101000a900473ffffffffffffffffffffffffffffffffffffffff16905090565b60028054600181600116156101000203166002900480601f0160208091040260200160405190810160405280929190818152602001828054600181600116156101000203166002900480156105a45780601f10610579576101008083540402835291602001916105a4565b820191906000526020600020905b81548152906001019060200180831161058757829003601f168201915b505050505081565b600460009054906101000a900473ffffffffffffffffffffffffffffffffffffffff1681565b606060786005544203101561064f576040517f08c379a000000000000000000000000000000000000000000000000000000000815260040180806020018281038252601d8152602001807f52657175697265642054696d6520686173206e6f7420656c617073656400000081525060200191505060405180910390fd5b60038054600181600116156101000203166002900480601f0160208091040260200160405190810160405280929190818152602001828054600181600116156101000203166002900480156106e55780601f106106ba576101008083540402835291602001916106e5565b820191906000526020600020905b8154815290600101906020018083116106c857829003601f168201915b5050505050905090565b6106f76108fa565b73ffffffffffffffffffffffffffffffffffffffff1660008054906101000a900473ffffffffffffffffffffffffffffffffffffffff1673ffffffffffffffffffffffffffffffffffffffff16146107b7576040517f08c379a00000000000000000000000000000000000000000000000000000000081526004018080602001828103825260208152602001807f4f776e61626c653a2063616c6c6572206973206e6f7420746865206f776e657281525060200191505060405180910390fd5b600073ffffffffffffffffffffffffffffffffffffffff168173ffffffffffffffffffffffffffffffffffffffff16141561083d576040517f08c379a00000000000000000000000000000000000000000000000000000000081526004018080602001828103825260268152602001806109036026913960400191505060405180910390fd5b8073ffffffffffffffffffffffffffffffffffffffff1660008054906101000a900473ffffffffffffffffffffffffffffffffffffffff1673ffffffffffffffffffffffffffffffffffffffff167f8be0079c531659141344cd1fd0a4f28419497f9722a3daafe3b4186f6b6457e060405160405180910390a3806000806101000a81548173ffffffffffffffffffffffffffffffffffffffff021916908373ffffffffffffffffffffffffffffffffffffffff16021790555050565b60003390509056fe4f776e61626c653a206e6577206f776e657220697320746865207a65726f2061646472657373a2646970667358221220f5487ce8a1be9e8d1d1bec0b94fea005ef0a6c2cfeb68569133298ec6ee4e59164736f6c634300060c00334f776e61626c653a206e6577206f776e657220697320746865207a65726f2061646472657373a264697066735822122096a978a60b22883b3f335f723c21527e04d05e23a3a7563e75da3f7d70d76d7564736f6c634300060c0033",
  "immutableReferences": {},
  "source": "pragma solidity >= 0.4.0 < 0.7.0;\n\nimport \"@openzeppelin/contracts/access/Ownable.sol\";\nimport \"./HashContract.sol\";\n\ncontract Factory is Ownable{\n    \n    mapping(string => HashContract) private  hashContracts;\n\n    function addHash(string memory _firstName, string memory _lastName, string memory _hash) public {\n        require(hashContracts[_hash] == HashContract(address(0)), \"Hash is already in use\");\n        HashContract _hashContract = new HashContract(_firstName, _lastName, _hash, this);\n        hashContracts[_hash] = _hashContract;\n    }\n\n    function clearHash(string memory _hash) public onlyOwner{\n        hashContracts[_hash] = HashContract(address(0));\n    }\n    \n    function getContract(string memory hash) public view returns(HashContract){\n        return hashContracts[hash];\n    }\n}",
  "sourcePath": "/home/samarth/Blockchain/Dapps/time-capsule/contracts/Factory.sol",
  "compiler": {
    "name": "solc",
    "version": "0.6.12+commit.27d51765.Emscripten.clang"
  },
  "schemaVersion": "3.3.1",
  "updatedAt": "2021-02-03T07:10:19.295Z",
  "devdoc": {
    "kind": "dev",
    "methods": {
      "owner()": {
        "details": "Returns the address of the current owner."
      },
      "renounceOwnership()": {
        "details": "Leaves the contract without owner. It will not be possible to call `onlyOwner` functions anymore. Can only be called by the current owner. NOTE: Renouncing ownership will leave the contract without an owner, thereby removing any functionality that is only available to the owner."
      },
      "transferOwnership(address)": {
        "details": "Transfers ownership of the contract to a new account (`newOwner`). Can only be called by the current owner."
      }
    },
    "version": 1
  },
  "userdoc": {
    "kind": "user",
    "methods": {},
    "version": 1
  }
}